{
    "_format": "hh-sol-artifact-1",
    "contractName": "Ballot",
    "sourceName": "contracts/TokenizedBallot.sol",
    "abi": [
        {
            "inputs": [
                {
                    "internalType": "bytes32[]",
                    "name": "proposalNames",
                    "type": "bytes32[]"
                },
                {
                    "internalType": "address",
                    "name": "_voteToken",
                    "type": "address"
                }
            ],
            "stateMutability": "nonpayable",
            "type": "constructor"
        },
        {
            "inputs": [
                {
                    "internalType": "uint256",
                    "name": "",
                    "type": "uint256"
                }
            ],
            "name": "proposals",
            "outputs": [
                {
                    "internalType": "bytes32",
                    "name": "name",
                    "type": "bytes32"
                },
                {
                    "internalType": "uint256",
                    "name": "voteCount",
                    "type": "uint256"
                }
            ],
            "stateMutability": "view",
            "type": "function"
        },
        {
            "inputs": [],
            "name": "targetBlock",
            "outputs": [
                {
                    "internalType": "uint256",
                    "name": "",
                    "type": "uint256"
                }
            ],
            "stateMutability": "view",
            "type": "function"
        },
        {
            "inputs": [
                {
                    "internalType": "uint256",
                    "name": "proposal",
                    "type": "uint256"
                },
                {
                    "internalType": "uint256",
                    "name": "amount",
                    "type": "uint256"
                }
            ],
            "name": "vote",
            "outputs": [],
            "stateMutability": "nonpayable",
            "type": "function"
        },
        {
            "inputs": [
                {
                    "internalType": "address",
                    "name": "account",
                    "type": "address"
                }
            ],
            "name": "votePower",
            "outputs": [
                {
                    "internalType": "uint256",
                    "name": "",
                    "type": "uint256"
                }
            ],
            "stateMutability": "view",
            "type": "function"
        },
        {
            "inputs": [
                {
                    "internalType": "address",
                    "name": "",
                    "type": "address"
                }
            ],
            "name": "votePowerSpent",
            "outputs": [
                {
                    "internalType": "uint256",
                    "name": "",
                    "type": "uint256"
                }
            ],
            "stateMutability": "view",
            "type": "function"
        },
        {
            "inputs": [],
            "name": "voteToken",
            "outputs": [
                {
                    "internalType": "contract MyERC20Votes",
                    "name": "",
                    "type": "address"
                }
            ],
            "stateMutability": "view",
            "type": "function"
        },
        {
            "inputs": [],
            "name": "winnerName",
            "outputs": [
                {
                    "internalType": "bytes32",
                    "name": "winnerName_",
                    "type": "bytes32"
                }
            ],
            "stateMutability": "view",
            "type": "function"
        },
        {
            "inputs": [],
            "name": "winningProposal",
            "outputs": [
                {
                    "internalType": "uint256",
                    "name": "winningProposal_",
                    "type": "uint256"
                }
            ],
            "stateMutability": "view",
            "type": "function"
        }
    ],
    "bytecode": "0x60806040523480156200001157600080fd5b5060405162000d9038038062000d90833981810160405281019062000037919062000340565b806000806101000a81548173ffffffffffffffffffffffffffffffffffffffff021916908373ffffffffffffffffffffffffffffffffffffffff16021790555060005b82518110156200010e5760036040518060400160405280858481518110620000a757620000a6620003a6565b5b602002602001015181526020016000815250908060018154018082558091505060019003906000526020600020906002020160009091909190915060008201518160000155602082015181600101555050808062000105906200040e565b9150506200007a565b5050506200045b565b6000604051905090565b600080fd5b600080fd5b600080fd5b6000601f19601f8301169050919050565b7f4e487b7100000000000000000000000000000000000000000000000000000000600052604160045260246000fd5b6200017b8262000130565b810181811067ffffffffffffffff821117156200019d576200019c62000141565b5b80604052505050565b6000620001b262000117565b9050620001c0828262000170565b919050565b600067ffffffffffffffff821115620001e357620001e262000141565b5b602082029050602081019050919050565b600080fd5b6000819050919050565b6200020e81620001f9565b81146200021a57600080fd5b50565b6000815190506200022e8162000203565b92915050565b60006200024b6200024584620001c5565b620001a6565b90508083825260208201905060208402830185811115620002715762000270620001f4565b5b835b818110156200029e57806200028988826200021d565b84526020840193505060208101905062000273565b5050509392505050565b600082601f830112620002c057620002bf6200012b565b5b8151620002d284826020860162000234565b91505092915050565b600073ffffffffffffffffffffffffffffffffffffffff82169050919050565b60006200030882620002db565b9050919050565b6200031a81620002fb565b81146200032657600080fd5b50565b6000815190506200033a816200030f565b92915050565b600080604083850312156200035a576200035962000121565b5b600083015167ffffffffffffffff8111156200037b576200037a62000126565b5b6200038985828601620002a8565b92505060206200039c8582860162000329565b9150509250929050565b7f4e487b7100000000000000000000000000000000000000000000000000000000600052603260045260246000fd5b7f4e487b7100000000000000000000000000000000000000000000000000000000600052601160045260246000fd5b6000819050919050565b60006200041b8262000404565b91507fffffffffffffffffffffffffffffffffffffffffffffffffffffffffffffffff820362000450576200044f620003d5565b5b600182019050919050565b610925806200046b6000396000f3fe608060405234801561001057600080fd5b50600436106100885760003560e01c80639e90d0d91161005b5780639e90d0d914610118578063b384abef14610148578063e2ba53f014610164578063e490e6991461018257610088565b8063013cf08b1461008d5780630a16697a146100be578063160d66ae146100dc578063609ff1bd146100fa575b600080fd5b6100a760048036038101906100a291906104f1565b6101b2565b6040516100b5929190610546565b60405180910390f35b6100c66101e6565b6040516100d3919061056f565b60405180910390f35b6100e46101ec565b6040516100f19190610609565b60405180910390f35b610102610210565b60405161010f919061056f565b60405180910390f35b610132600480360381019061012d9190610662565b610298565b60405161013f919061056f565b60405180910390f35b610162600480360381019061015d919061068f565b6102b0565b005b61016c610391565b60405161017991906106cf565b60405180910390f35b61019c60048036038101906101979190610662565b6103c5565b6040516101a9919061056f565b60405180910390f35b600381815481106101c257600080fd5b90600052602060002090600202016000915090508060000154908060010154905082565b60015481565b60008054906101000a900473ffffffffffffffffffffffffffffffffffffffff1681565b6000806000905060005b60038054905081101561029357816003828154811061023c5761023b6106ea565b5b90600052602060002090600202016001015411156102805760038181548110610268576102676106ea565b5b90600052602060002090600202016001015491508092505b808061028b90610748565b91505061021a565b505090565b60026020528060005260406000206000915090505481565b806102ba336103c5565b10156102fb576040517f08c379a00000000000000000000000000000000000000000000000000000000081526004016102f2906107ed565b60405180910390fd5b80600383815481106103105761030f6106ea565b5b90600052602060002090600202016001016000828254610330919061080d565b9250508190555080600260003373ffffffffffffffffffffffffffffffffffffffff1673ffffffffffffffffffffffffffffffffffffffff1681526020019081526020016000206000828254610386919061080d565b925050819055505050565b6000600361039d610210565b815481106103ae576103ad6106ea565b5b906000526020600020906002020160000154905090565b6000600260008373ffffffffffffffffffffffffffffffffffffffff1673ffffffffffffffffffffffffffffffffffffffff1681526020019081526020016000205460008054906101000a900473ffffffffffffffffffffffffffffffffffffffff1673ffffffffffffffffffffffffffffffffffffffff16633a46b1a8846001546040518363ffffffff1660e01b8152600401610464929190610850565b602060405180830381865afa158015610481573d6000803e3d6000fd5b505050506040513d601f19601f820116820180604052508101906104a5919061088e565b6104af91906108bb565b9050919050565b600080fd5b6000819050919050565b6104ce816104bb565b81146104d957600080fd5b50565b6000813590506104eb816104c5565b92915050565b600060208284031215610507576105066104b6565b5b6000610515848285016104dc565b91505092915050565b6000819050919050565b6105318161051e565b82525050565b610540816104bb565b82525050565b600060408201905061055b6000830185610528565b6105686020830184610537565b9392505050565b60006020820190506105846000830184610537565b92915050565b600073ffffffffffffffffffffffffffffffffffffffff82169050919050565b6000819050919050565b60006105cf6105ca6105c58461058a565b6105aa565b61058a565b9050919050565b60006105e1826105b4565b9050919050565b60006105f3826105d6565b9050919050565b610603816105e8565b82525050565b600060208201905061061e60008301846105fa565b92915050565b600061062f8261058a565b9050919050565b61063f81610624565b811461064a57600080fd5b50565b60008135905061065c81610636565b92915050565b600060208284031215610678576106776104b6565b5b60006106868482850161064d565b91505092915050565b600080604083850312156106a6576106a56104b6565b5b60006106b4858286016104dc565b92505060206106c5858286016104dc565b9150509250929050565b60006020820190506106e46000830184610528565b92915050565b7f4e487b7100000000000000000000000000000000000000000000000000000000600052603260045260246000fd5b7f4e487b7100000000000000000000000000000000000000000000000000000000600052601160045260246000fd5b6000610753826104bb565b91507fffffffffffffffffffffffffffffffffffffffffffffffffffffffffffffffff820361078557610784610719565b5b600182019050919050565b600082825260208201905092915050565b7f4e6f746520656e6f75676820766f746520706f77657200000000000000000000600082015250565b60006107d7601683610790565b91506107e2826107a1565b602082019050919050565b60006020820190508181036000830152610806816107ca565b9050919050565b6000610818826104bb565b9150610823836104bb565b925082820190508082111561083b5761083a610719565b5b92915050565b61084a81610624565b82525050565b60006040820190506108656000830185610841565b6108726020830184610537565b9392505050565b600081519050610888816104c5565b92915050565b6000602082840312156108a4576108a36104b6565b5b60006108b284828501610879565b91505092915050565b60006108c6826104bb565b91506108d1836104bb565b92508282039050818111156108e9576108e8610719565b5b9291505056fea2646970667358221220b7590b9dbe41c59819ecd33f1a75fd51ea2017a8a432fac2f32a71b5322b875764736f6c63430008110033",
    "linkReferences": {},
    "deployedLinkReferences": {}
}